{
  "_format": "hh-sol-artifact-1",
  "contractName": "DAO",
  "sourceName": "contracts/DAO.sol",
  "abi": [
    {
      "inputs": [
        {
          "internalType": "uint256",
          "name": "contributionTime",
          "type": "uint256"
        },
        {
          "internalType": "uint256",
          "name": "_voteTime",
          "type": "uint256"
        },
        {
          "internalType": "uint256",
          "name": "_quorum",
          "type": "uint256"
        }
      ],
      "stateMutability": "nonpayable",
      "type": "constructor"
    },
    {
      "inputs": [],
      "name": "admin",
      "outputs": [
        {
          "internalType": "address",
          "name": "",
          "type": "address"
        }
      ],
      "stateMutability": "view",
      "type": "function"
    },
    {
      "inputs": [],
      "name": "availableFunds",
      "outputs": [
        {
          "internalType": "uint256",
          "name": "",
          "type": "uint256"
        }
      ],
      "stateMutability": "view",
      "type": "function"
    },
    {
      "inputs": [],
      "name": "contribute",
      "outputs": [],
      "stateMutability": "payable",
      "type": "function"
    },
    {
      "inputs": [],
      "name": "contributionEnd",
      "outputs": [
        {
          "internalType": "uint256",
          "name": "",
          "type": "uint256"
        }
      ],
      "stateMutability": "view",
      "type": "function"
    },
    {
      "inputs": [
        {
          "internalType": "string",
          "name": "name",
          "type": "string"
        },
        {
          "internalType": "uint256",
          "name": "amount",
          "type": "uint256"
        },
        {
          "internalType": "address payable",
          "name": "recipient",
          "type": "address"
        }
      ],
      "name": "createProposal",
      "outputs": [],
      "stateMutability": "nonpayable",
      "type": "function"
    },
    {
      "inputs": [
        {
          "internalType": "uint256",
          "name": "proposalId",
          "type": "uint256"
        }
      ],
      "name": "executeProposal",
      "outputs": [],
      "stateMutability": "nonpayable",
      "type": "function"
    },
    {
      "inputs": [
        {
          "internalType": "uint256",
          "name": "id",
          "type": "uint256"
        }
      ],
      "name": "getProposalId",
      "outputs": [
        {
          "internalType": "uint256",
          "name": "",
          "type": "uint256"
        }
      ],
      "stateMutability": "view",
      "type": "function"
    },
    {
      "inputs": [
        {
          "internalType": "address",
          "name": "",
          "type": "address"
        }
      ],
      "name": "investors",
      "outputs": [
        {
          "internalType": "bool",
          "name": "",
          "type": "bool"
        }
      ],
      "stateMutability": "view",
      "type": "function"
    },
    {
      "inputs": [],
      "name": "nextProposalId",
      "outputs": [
        {
          "internalType": "uint256",
          "name": "",
          "type": "uint256"
        }
      ],
      "stateMutability": "view",
      "type": "function"
    },
    {
      "inputs": [
        {
          "internalType": "uint256",
          "name": "",
          "type": "uint256"
        }
      ],
      "name": "proposals",
      "outputs": [
        {
          "internalType": "uint256",
          "name": "id",
          "type": "uint256"
        },
        {
          "internalType": "string",
          "name": "name",
          "type": "string"
        },
        {
          "internalType": "uint256",
          "name": "amount",
          "type": "uint256"
        },
        {
          "internalType": "address payable",
          "name": "recipient",
          "type": "address"
        },
        {
          "internalType": "uint256",
          "name": "votes",
          "type": "uint256"
        },
        {
          "internalType": "uint256",
          "name": "end",
          "type": "uint256"
        },
        {
          "internalType": "bool",
          "name": "executed",
          "type": "bool"
        }
      ],
      "stateMutability": "view",
      "type": "function"
    },
    {
      "inputs": [],
      "name": "quorum",
      "outputs": [
        {
          "internalType": "uint256",
          "name": "",
          "type": "uint256"
        }
      ],
      "stateMutability": "view",
      "type": "function"
    },
    {
      "inputs": [
        {
          "internalType": "uint256",
          "name": "amount",
          "type": "uint256"
        }
      ],
      "name": "redeemShare",
      "outputs": [],
      "stateMutability": "nonpayable",
      "type": "function"
    },
    {
      "inputs": [
        {
          "internalType": "address",
          "name": "",
          "type": "address"
        }
      ],
      "name": "shares",
      "outputs": [
        {
          "internalType": "uint256",
          "name": "",
          "type": "uint256"
        }
      ],
      "stateMutability": "view",
      "type": "function"
    },
    {
      "inputs": [],
      "name": "totalShares",
      "outputs": [
        {
          "internalType": "uint256",
          "name": "",
          "type": "uint256"
        }
      ],
      "stateMutability": "view",
      "type": "function"
    },
    {
      "inputs": [
        {
          "internalType": "uint256",
          "name": "amount",
          "type": "uint256"
        },
        {
          "internalType": "address",
          "name": "to",
          "type": "address"
        }
      ],
      "name": "transferShare",
      "outputs": [],
      "stateMutability": "nonpayable",
      "type": "function"
    },
    {
      "inputs": [
        {
          "internalType": "uint256",
          "name": "proposalId",
          "type": "uint256"
        }
      ],
      "name": "vote",
      "outputs": [],
      "stateMutability": "nonpayable",
      "type": "function"
    },
    {
      "inputs": [],
      "name": "voteTime",
      "outputs": [
        {
          "internalType": "uint256",
          "name": "",
          "type": "uint256"
        }
      ],
      "stateMutability": "view",
      "type": "function"
    },
    {
      "inputs": [
        {
          "internalType": "address",
          "name": "",
          "type": "address"
        },
        {
          "internalType": "uint256",
          "name": "",
          "type": "uint256"
        }
      ],
      "name": "votes",
      "outputs": [
        {
          "internalType": "bool",
          "name": "",
          "type": "bool"
        }
      ],
      "stateMutability": "view",
      "type": "function"
    },
    {
      "inputs": [
        {
          "internalType": "uint256",
          "name": "amount",
          "type": "uint256"
        },
        {
          "internalType": "address payable",
          "name": "to",
          "type": "address"
        }
      ],
      "name": "withdrawEther",
      "outputs": [],
      "stateMutability": "nonpayable",
      "type": "function"
    }
  ],
  "bytecode": "0x60806040523480156200001157600080fd5b50604051620022ed380380620022ed833981810160405281019062000037919062000136565b600081118015620000485750606481105b6200008a576040517f08c379a00000000000000000000000000000000000000000000000000000000081526004016200008190620001f3565b60405180910390fd5b824262000098919062000244565b600a81905550816003819055508060048190555033600560006101000a81548173ffffffffffffffffffffffffffffffffffffffff021916908373ffffffffffffffffffffffffffffffffffffffff1602179055505050506200027f565b600080fd5b6000819050919050565b6200011081620000fb565b81146200011c57600080fd5b50565b600081519050620001308162000105565b92915050565b600080600060608486031215620001525762000151620000f6565b5b600062000162868287016200011f565b935050602062000175868287016200011f565b925050604062000188868287016200011f565b9150509250925092565b600082825260208201905092915050565b7f51756f72756d206d757374206265206265747765656e203020616e6420313030600082015250565b6000620001db60208362000192565b9150620001e882620001a3565b602082019050919050565b600060208201905081810360008301526200020e81620001cc565b9050919050565b7f4e487b7100000000000000000000000000000000000000000000000000000000600052601160045260246000fd5b60006200025182620000fb565b91506200025e83620000fb565b925082820190508082111562000279576200027862000215565b5b92915050565b61205e806200028f6000396000f3fe6080604052600436106101145760003560e01c80636f7bc9be116100a0578063ce56c45411610064578063ce56c454146103b7578063ce7c2ac2146103e0578063d151b5161461041d578063d7bb99ba14610448578063f851a4401461045257610114565b80636f7bc9be146102ac5780637c95ac27146102e9578063868643df146103265780639f2524ee1461034f578063bcf93dd61461038c57610114565b80631703a018116100e75780631703a018146101d75780632ab09d14146102025780633a98ef391461022d57806346fcff4c146102585780636ac1e01f1461028357610114565b80630121b93f14610119578063013cf08b14610142578063039383e6146101855780630d61b519146101ae575b600080fd5b34801561012557600080fd5b50610140600480360381019061013b9190611276565b61047d565b005b34801561014e57600080fd5b5061016960048036038101906101649190611276565b6106d7565b60405161017c979695949392919061139e565b60405180910390f35b34801561019157600080fd5b506101ac60048036038101906101a79190611452565b6107ce565b005b3480156101ba57600080fd5b506101d560048036038101906101d09190611276565b610958565b005b3480156101e357600080fd5b506101ec610b52565b6040516101f99190611492565b60405180910390f35b34801561020e57600080fd5b50610217610b58565b6040516102249190611492565b60405180910390f35b34801561023957600080fd5b50610242610b5e565b60405161024f9190611492565b60405180910390f35b34801561026457600080fd5b5061026d610b64565b60405161027a9190611492565b60405180910390f35b34801561028f57600080fd5b506102aa60048036038101906102a5919061153e565b610b6a565b005b3480156102b857600080fd5b506102d360048036038101906102ce91906115b2565b610dd5565b6040516102e091906115df565b60405180910390f35b3480156102f557600080fd5b50610310600480360381019061030b9190611276565b610df5565b60405161031d9190611492565b60405180910390f35b34801561033257600080fd5b5061034d60048036038101906103489190611276565b610e14565b005b34801561035b57600080fd5b50610376600480360381019061037191906115fa565b610f94565b60405161038391906115df565b60405180910390f35b34801561039857600080fd5b506103a1610fc3565b6040516103ae9190611492565b60405180910390f35b3480156103c357600080fd5b506103de60048036038101906103d9919061163a565b610fc9565b005b3480156103ec57600080fd5b50610407600480360381019061040291906115b2565b611067565b6040516104149190611492565b60405180910390f35b34801561042957600080fd5b5061043261107f565b60405161043f9190611492565b60405180910390f35b610450611085565b005b34801561045e57600080fd5b50610467611167565b6040516104749190611689565b60405180910390f35b60011515600660003373ffffffffffffffffffffffffffffffffffffffff1673ffffffffffffffffffffffffffffffffffffffff16815260200190815260200160002060009054906101000a900460ff16151514610510576040517f08c379a0000000000000000000000000000000000000000000000000000000008152600401610507906116f0565b60405180910390fd5b6000806000838152602001908152602001600020905060001515600260003373ffffffffffffffffffffffffffffffffffffffff1673ffffffffffffffffffffffffffffffffffffffff168152602001908152602001600020600084815260200190815260200160002060009054906101000a900460ff161515146105ca576040517f08c379a00000000000000000000000000000000000000000000000000000000081526004016105c190611782565b60405180910390fd5b80600501544210610610576040517f08c379a000000000000000000000000000000000000000000000000000000000815260040161060790611814565b60405180910390fd5b6001600260003373ffffffffffffffffffffffffffffffffffffffff1673ffffffffffffffffffffffffffffffffffffffff168152602001908152602001600020600084815260200190815260200160002060006101000a81548160ff021916908315150217905550600760003373ffffffffffffffffffffffffffffffffffffffff1673ffffffffffffffffffffffffffffffffffffffff168152602001908152602001600020548160040160008282546106cc9190611863565b925050819055505050565b6000602052806000526040600020600091509050806000015490806001018054610700906118c6565b80601f016020809104026020016040519081016040528092919081815260200182805461072c906118c6565b80156107795780601f1061074e57610100808354040283529160200191610779565b820191906000526020600020905b81548152906001019060200180831161075c57829003601f168201915b5050505050908060020154908060030160009054906101000a900473ffffffffffffffffffffffffffffffffffffffff16908060040154908060050154908060060160009054906101000a900460ff16905087565b81600760003373ffffffffffffffffffffffffffffffffffffffff1673ffffffffffffffffffffffffffffffffffffffff168152602001908152602001600020541015610850576040517f08c379a000000000000000000000000000000000000000000000000000000000815260040161084790611943565b60405180910390fd5b81600760003373ffffffffffffffffffffffffffffffffffffffff1673ffffffffffffffffffffffffffffffffffffffff168152602001908152602001600020600082825461089f9190611963565b9250508190555081600760008373ffffffffffffffffffffffffffffffffffffffff1673ffffffffffffffffffffffffffffffffffffffff16815260200190815260200160002060008282546108f59190611863565b925050819055506001600660008373ffffffffffffffffffffffffffffffffffffffff1673ffffffffffffffffffffffffffffffffffffffff16815260200190815260200160002060006101000a81548160ff0219169083151502179055505050565b600560009054906101000a900473ffffffffffffffffffffffffffffffffffffffff1673ffffffffffffffffffffffffffffffffffffffff163373ffffffffffffffffffffffffffffffffffffffff16146109e8576040517f08c379a00000000000000000000000000000000000000000000000000000000081526004016109df906119e3565b60405180910390fd5b600080600083815260200190815260200160002090508060050154421015610a45576040517f08c379a0000000000000000000000000000000000000000000000000000000008152600401610a3c90611a75565b60405180910390fd5b600015158160060160009054906101000a900460ff16151514610a9d576040517f08c379a0000000000000000000000000000000000000000000000000000000008152600401610a9490611b07565b60405180910390fd5b60045460085460648360040154610ab49190611b27565b610abe9190611b98565b1015610aff576040517f08c379a0000000000000000000000000000000000000000000000000000000008152600401610af690611c3b565b60405180910390fd5b60018160060160006101000a81548160ff021916908315150217905550610b4e81600201548260030160009054906101000a900473ffffffffffffffffffffffffffffffffffffffff1661118d565b5050565b60045481565b60015481565b60085481565b60095481565b60011515600660003373ffffffffffffffffffffffffffffffffffffffff1673ffffffffffffffffffffffffffffffffffffffff16815260200190815260200160002060009054906101000a900460ff16151514610bfd576040517f08c379a0000000000000000000000000000000000000000000000000000000008152600401610bf4906116f0565b60405180910390fd5b816009541015610c42576040517f08c379a0000000000000000000000000000000000000000000000000000000008152600401610c3990611ca7565b60405180910390fd5b6040518060e00160405280600154815260200185858080601f016020809104026020016040519081016040528093929190818152602001838380828437600081840152601f19601f8201169050808301925050505050505081526020018381526020018273ffffffffffffffffffffffffffffffffffffffff1681526020016000815260200160035442610cd69190611863565b8152602001600015158152506000806001548152602001908152602001600020600082015181600001556020820151816001019081610d159190611ea2565b506040820151816002015560608201518160030160006101000a81548173ffffffffffffffffffffffffffffffffffffffff021916908373ffffffffffffffffffffffffffffffffffffffff1602179055506080820151816004015560a0820151816005015560c08201518160060160006101000a81548160ff0219169083151502179055509050508160096000828254610db09190611963565b9250508190555060016000815480929190610dca90611f74565b919050555050505050565b60066020528060005260406000206000915054906101000a900460ff1681565b6000806000838152602001908152602001600020600001549050919050565b80600760003373ffffffffffffffffffffffffffffffffffffffff1673ffffffffffffffffffffffffffffffffffffffff168152602001908152602001600020541015610e96576040517f08c379a0000000000000000000000000000000000000000000000000000000008152600401610e8d90611943565b60405180910390fd5b806009541015610edb576040517f08c379a0000000000000000000000000000000000000000000000000000000008152600401610ed290612008565b60405180910390fd5b80600760003373ffffffffffffffffffffffffffffffffffffffff1673ffffffffffffffffffffffffffffffffffffffff1681526020019081526020016000206000828254610f2a9190611963565b925050819055508060096000828254610f439190611963565b925050819055503373ffffffffffffffffffffffffffffffffffffffff166108fc829081150290604051600060405180830381858888f19350505050158015610f90573d6000803e3d6000fd5b5050565b60026020528160005260406000206020528060005260406000206000915091509054906101000a900460ff1681565b60035481565b600560009054906101000a900473ffffffffffffffffffffffffffffffffffffffff1673ffffffffffffffffffffffffffffffffffffffff163373ffffffffffffffffffffffffffffffffffffffff1614611059576040517f08c379a0000000000000000000000000000000000000000000000000000000008152600401611050906119e3565b60405180910390fd5b611063828261118d565b5050565b60076020528060005260406000206000915090505481565b600a5481565b6001600660003373ffffffffffffffffffffffffffffffffffffffff1673ffffffffffffffffffffffffffffffffffffffff16815260200190815260200160002060006101000a81548160ff02191690831515021790555034600760003373ffffffffffffffffffffffffffffffffffffffff1673ffffffffffffffffffffffffffffffffffffffff168152602001908152602001600020600082825461112c9190611863565b9250508190555034600860008282546111459190611863565b92505081905550346009600082825461115e9190611863565b92505081905550565b600560009054906101000a900473ffffffffffffffffffffffffffffffffffffffff1681565b6009548211156111d2576040517f08c379a00000000000000000000000000000000000000000000000000000000081526004016111c990612008565b60405180910390fd5b81600960008282546111e49190611963565b925050819055508073ffffffffffffffffffffffffffffffffffffffff166108fc839081150290604051600060405180830381858888f19350505050158015611231573d6000803e3d6000fd5b505050565b600080fd5b600080fd5b6000819050919050565b61125381611240565b811461125e57600080fd5b50565b6000813590506112708161124a565b92915050565b60006020828403121561128c5761128b611236565b5b600061129a84828501611261565b91505092915050565b6112ac81611240565b82525050565b600081519050919050565b600082825260208201905092915050565b60005b838110156112ec5780820151818401526020810190506112d1565b60008484015250505050565b6000601f19601f8301169050919050565b6000611314826112b2565b61131e81856112bd565b935061132e8185602086016112ce565b611337816112f8565b840191505092915050565b600073ffffffffffffffffffffffffffffffffffffffff82169050919050565b600061136d82611342565b9050919050565b61137d81611362565b82525050565b60008115159050919050565b61139881611383565b82525050565b600060e0820190506113b3600083018a6112a3565b81810360208301526113c58189611309565b90506113d460408301886112a3565b6113e16060830187611374565b6113ee60808301866112a3565b6113fb60a08301856112a3565b61140860c083018461138f565b98975050505050505050565b600061141f82611342565b9050919050565b61142f81611414565b811461143a57600080fd5b50565b60008135905061144c81611426565b92915050565b6000806040838503121561146957611468611236565b5b600061147785828601611261565b92505060206114888582860161143d565b9150509250929050565b60006020820190506114a760008301846112a3565b92915050565b600080fd5b600080fd5b600080fd5b60008083601f8401126114d2576114d16114ad565b5b8235905067ffffffffffffffff8111156114ef576114ee6114b2565b5b60208301915083600182028301111561150b5761150a6114b7565b5b9250929050565b61151b81611362565b811461152657600080fd5b50565b60008135905061153881611512565b92915050565b6000806000806060858703121561155857611557611236565b5b600085013567ffffffffffffffff8111156115765761157561123b565b5b611582878288016114bc565b9450945050602061159587828801611261565b92505060406115a687828801611529565b91505092959194509250565b6000602082840312156115c8576115c7611236565b5b60006115d68482850161143d565b91505092915050565b60006020820190506115f4600083018461138f565b92915050565b6000806040838503121561161157611610611236565b5b600061161f8582860161143d565b925050602061163085828601611261565b9150509250929050565b6000806040838503121561165157611650611236565b5b600061165f85828601611261565b925050602061167085828601611529565b9150509250929050565b61168381611414565b82525050565b600060208201905061169e600083018461167a565b92915050565b7f496e766573746f7273206f6e6c79000000000000000000000000000000000000600082015250565b60006116da600e836112bd565b91506116e5826116a4565b602082019050919050565b60006020820190508181036000830152611709816116cd565b9050919050565b7f496e766573746f722063616e206f6e6c7920766f7465206f6e636520666f722060008201527f612070726f706f73616c00000000000000000000000000000000000000000000602082015250565b600061176c602a836112bd565b915061177782611710565b604082019050919050565b6000602082019050818103600083015261179b8161175f565b9050919050565b7f43616e206f6e6c7920766f746520756e74696c2070726f706f73616c20656e6460008201527f7300000000000000000000000000000000000000000000000000000000000000602082015250565b60006117fe6021836112bd565b9150611809826117a2565b604082019050919050565b6000602082019050818103600083015261182d816117f1565b9050919050565b7f4e487b7100000000000000000000000000000000000000000000000000000000600052601160045260246000fd5b600061186e82611240565b915061187983611240565b925082820190508082111561189157611890611834565b5b92915050565b7f4e487b7100000000000000000000000000000000000000000000000000000000600052602260045260246000fd5b600060028204905060018216806118de57607f821691505b6020821081036118f1576118f0611897565b5b50919050565b7f4e6f7420656e6f75676820736861726573000000000000000000000000000000600082015250565b600061192d6011836112bd565b9150611938826118f7565b602082019050919050565b6000602082019050818103600083015261195c81611920565b9050919050565b600061196e82611240565b915061197983611240565b925082820390508181111561199157611990611834565b5b92915050565b7f41646d696e206f6e6c7900000000000000000000000000000000000000000000600082015250565b60006119cd600a836112bd565b91506119d882611997565b602082019050919050565b600060208201905081810360008301526119fc816119c0565b9050919050565b7f43616e6e6f7420657865637574652070726f706f73616c206265666f7265206560008201527f6e64206461746500000000000000000000000000000000000000000000000000602082015250565b6000611a5f6027836112bd565b9150611a6a82611a03565b604082019050919050565b60006020820190508181036000830152611a8e81611a52565b9050919050565b7f43616e6e6f74206578656375746520612070726f706f73616c2074686174206860008201527f617320616c7265616479206265656e2065786563757465640000000000000000602082015250565b6000611af16038836112bd565b9150611afc82611a95565b604082019050919050565b60006020820190508181036000830152611b2081611ae4565b9050919050565b6000611b3282611240565b9150611b3d83611240565b9250828202611b4b81611240565b91508282048414831517611b6257611b61611834565b5b5092915050565b7f4e487b7100000000000000000000000000000000000000000000000000000000600052601260045260246000fd5b6000611ba382611240565b9150611bae83611240565b925082611bbe57611bbd611b69565b5b828204905092915050565b7f43616e6e6f7420657865637574652070726f706f73616c207769746820766f7460008201527f65732062656c6f772071756f72756d0000000000000000000000000000000000602082015250565b6000611c25602f836112bd565b9150611c3082611bc9565b604082019050919050565b60006020820190508181036000830152611c5481611c18565b9050919050565b7f416d6f756e7420746f6f20626967000000000000000000000000000000000000600082015250565b6000611c91600e836112bd565b9150611c9c82611c5b565b602082019050919050565b60006020820190508181036000830152611cc081611c84565b9050919050565b7f4e487b7100000000000000000000000000000000000000000000000000000000600052604160045260246000fd5b60008190508160005260206000209050919050565b60006020601f8301049050919050565b600082821b905092915050565b600060088302611d587fffffffffffffffffffffffffffffffffffffffffffffffffffffffffffffffff82611d1b565b611d628683611d1b565b95508019841693508086168417925050509392505050565b6000819050919050565b6000611d9f611d9a611d9584611240565b611d7a565b611240565b9050919050565b6000819050919050565b611db983611d84565b611dcd611dc582611da6565b848454611d28565b825550505050565b600090565b611de2611dd5565b611ded818484611db0565b505050565b5b81811015611e1157611e06600082611dda565b600181019050611df3565b5050565b601f821115611e5657611e2781611cf6565b611e3084611d0b565b81016020851015611e3f578190505b611e53611e4b85611d0b565b830182611df2565b50505b505050565b600082821c905092915050565b6000611e7960001984600802611e5b565b1980831691505092915050565b6000611e928383611e68565b9150826002028217905092915050565b611eab826112b2565b67ffffffffffffffff811115611ec457611ec3611cc7565b5b611ece82546118c6565b611ed9828285611e15565b600060209050601f831160018114611f0c5760008415611efa578287015190505b611f048582611e86565b865550611f6c565b601f198416611f1a86611cf6565b60005b82811015611f4257848901518255600182019150602085019450602081019050611f1d565b86831015611f5f5784890151611f5b601f891682611e68565b8355505b6001600288020188555050505b505050505050565b6000611f7f82611240565b91507fffffffffffffffffffffffffffffffffffffffffffffffffffffffffffffffff8203611fb157611fb0611834565b5b600182019050919050565b7f4e6f7420656e6f75676820617661696c61626c652066756e6473000000000000600082015250565b6000611ff2601a836112bd565b9150611ffd82611fbc565b602082019050919050565b6000602082019050818103600083015261202181611fe5565b905091905056fea2646970667358221220c1bbd5b5390058be5a6eef411d38ce292e0f2c000e949ed357ba35987d18ab3464736f6c63430008110033",
  "linkReferences": {},
  "deployedLinkReferences": {}
}